:020000000A28CC
:10000800FE00030EF1000A08F200962E0B28B62710
:10001800D300B727D400B827D500B927D600BA2708
:10002800D700BB27FA00D801D901F801F9018301EB
:02003800F02CAA
:10020000FF1B0A2983137F1883170008840A031928
:10021000FF0A08007F087F398A000408840A03194E
:10022000FF0A8200653403345C34033454340334ED
:100230004C340334453403343D340334353403340F
:100240002D340334243403341B340334173403347F
:100250000E34033404340334FB340234F1340234F6
:10026000E7340234DC340234D2340234C73402348A
:10027000BC340234AF340234A23402349834023431
:100280008E34023484340234793402346E340234CD
:1002900064340234593402344E3402344334023468
:1002A0003D34023432340234273402341C340234F4
:1002B0001134023405340234FA340134EF34013499
:1002C000E4340134D9340134CE340134C23401343D
:1002D000B7340134AC340134A234013497340134DE
:1002E0008C34013481340134743401347434013475
:1002F0006834013460340134573401344E340134ED
:10030000463401343D340134353401342D34013464
:10031000253401341D340134153401340E340134D4
:1003200006340134FF340034F8340034F13400343E
:10033000EA340034E3340034DC340034D63400349E
:10034000D2340034CC340034C6340034C0340034E9
:10035000BA340034B1340034B1340034A73400343A
:10036000A33400349E3400349A340034953400347D
:10037000913400348D3400348934003485340034B1
:10038000813400347D3400347934003476340034E0
:1003900074340034703400346D3400346A34003402
:1003A0006734003463340034603400345D34003426
:1003B0005A34003456340034553400345334003445
:1003C000503400344E3400344C3400344A34003459
:1003D0004834003446340034443400344234003469
:1003E000413400343F3400343D3400343C34003474
:1003F0003A3400343834003437340034353400347F
:100400003434003432340034F634F734F834F93408
:10041000FA34FB34FC34FD34FE34FF340034013450
:100420000234033404340534063407340834093400
:100430000A340B340C340D340E340F3410341134B0
:100440001234133414341534163417341834193460
:100450001A341B341C341D341E341F342034213410
:1004600022342334243425342634273428342934C0
:100470002A342B342C342D342E342F343034313470
:100480003234333434343534363437343834393420
:100490003A343B343C343D343E343F3440344134D0
:1004A0004234433444344534463447344834493480
:1004B0004A344B344C344D344E344F345034513430
:1004C00052345334543455345634573458345934E0
:1004D0005A345B345C345D345E345F346034613490
:1004E0006234633464346534663467346834693440
:1004F0006A346B346C346D346E34543465346D341A
:1005000070343D3400344D34613478343D3400343B
:100510004D3469346E343D340034203464346534F1
:1005200067342034003483120313B8003008B60057
:100530002F08B5002E08B4002D08B3003108A00024
:100540003208A1000030A11BFF30A200A300360832
:10055000A7003508A6003408A5003308A4008824A5
:10056000831203132308B6002208B5002108B40043
:100570002008B3000130F5007508B80736083504C7
:1005800034043304031DC52AC62A9E2A3808840071
:10059000831380010130B8023108A0003208A100A5
:1005A0000030A11BFF30A200A3003008A7002F08D5
:1005B000A6002E08A5002D08A400572583120313BA
:1005C0002008F5007508B7003108A0003208A10026
:1005D0000030A11BFF30A200A3003008A7002F08A5
:1005E000A6002E08A5002D08A4008824831203135A
:1005F0002308B0002208AF002108AE002008AD009B
:100600000A303702031C052B062B0A2B0730F50096
:100610007508B7073030F5007508B7073708F500DB
:10062000380884007508831380000130B802300850
:100630002F042E042D04031D1E2B1F2BCC2A080073
:1006400083120313A300A40100308B1B0130A1000F
:100650008B13831603130708F40074088312031323
:10066000A2008316031387017303031D382B392B54
:100670003D2B83120313A401A40A83122308F40060
:100680007408A0002008F039240487008715A5010C
:10069000A6010130A5070318A60A0030A6070030FE
:1006A0002602023003192502031C572B582B492B15
:1006B0008711A501A6010130A5070318A60A00307D
:1006C000A60700302602023003192502031C692BFD
:1006D0006A2B5B2B2308F40003300310F40DFF3E5C
:1006E000031D6D2B0310740D240487008715A501CD
:1006F000A6010130A5070318A60A0030A60700309E
:100700002602023003192502031C872B882B792B24
:100710008711A501A6010130A5070318A60A00301C
:10072000A60700302602023003192502031C992B6C
:100730009A2B8B2B22088316031387008312031333
:1007400021080319A42BA52BA62B8B170800F50154
:1007500000308A277D3083120313A7008230A8005F
:100760006A26F50105308A27790883120313A80049
:100770007808A70060270B309E27780883120313A0
:10078000BF007908C0000030C01BFF30C100C200AC
:1007900003279D307806031DD22B790A0319D12B2C
:1007A000D22BD62B2E30332730303327F5010A30A9
:1007B0008A278D3083120313A7008230A8006A268F
:1007C000F5010F308A277A083327F501F50A003042
:1007D0008A27883083120313A7008230A8006A2674
:1007E000831203135508BF005608C0000030C01B19
:1007F000FF30C100C2000327F501F50A09308A273E
:10080000833083120313A7008230A8006A26F50103
:10081000F50A0D308A27831203135308BF005408CA
:10082000C0000030C01BFF30C100C2000327080019
:10083000F3013330202383120313A701A8010130F1
:10084000A7070318A80A0030A80704302802E230DE
:1008500003192702031C2D2C2E2C1F2CF3013230E0
:10086000202383120313A701A8010130A70703184F
:10087000A80A0030A80704302802E2300319270232
:10088000031C432C442C352CF3012C3020238312E1
:100890000313A701A8010130A7070318A80A003015
:1008A000A80704302802E23003192702031C592C40
:1008B0005A2C4B2CF3010630202383120313A7017B
:1008C000A8010130A7070318A80A0030A8070430C0
:1008D0002802E23003192702031C6F2C702C612CB4
:1008E000F3010C30202383120313A701A801013068
:1008F000A7070318A80A0030A80704302802E2302E
:1009000003192702031C852C862C772CC02608008F
:10091000003083120313AB000030AA000030A9009E
:100920000030A80023082204210420040319992C74
:100930009A2CE72CAC01AC0AAA2C0130F30003106E
:10094000A00DA10DA20DA30DF30B9F2C0130F30000
:100950007308AC07A31FAD2CAE2C9D2C0130F30007
:100960000310A80DA90DAA0DAB0DF30BB02C230895
:100970002702031DC52C22082602031DC52C2108B1
:100980002502031DC52C20082402031CC82CC92CD9
:10099000D82C2008A4022108031C210FA50222083C
:1009A000031C220FA6022308031C230FA7022814EE
:1009B00001300310A30CA20CA10CA00CFF3E031DE0
:1009C000D92C0130AC02031DE62CE72CAE2C2B08F1
:1009D000A3002A08A2002908A1002808A0000800F6
:1009E0008316031788018901831603138701831275
:1009F000031387018316031306148614831203134B
:100A0000860183160313811281110108F839033816
:100A100081008B150B100130960096148B1718244B
:100A20001B277527740883120313A1007308A00005
:100A3000E125F800F901F81BF90383120313D10132
:100A4000D201831203135108013ED100520803184A
:100A5000013E003ED20051182E2D2F2D302DAD25F8
:100A60008312031358035904031D372D382D3D2DD0
:100A7000C02683120313D801D9011126A7235230AF
:100A800083120313CF00CF0B432D462D0730831263
:100A900003135105CF0000305205D0004F08500419
:100AA000031D532D542D212DC026212D0A288312DC
:100AB000031323082204210420040319602D612D4F
:100AC000A42DF401F40A712D0130F3000310A00DE0
:100AD000A10DA20DA30DF30B662D0130F3007308D9
:100AE000F407A31F742D752D642D23082702031D01
:100AF000832D22082602031D832D21082502031DB4
:100B0000832D20082402031C862D872D952D200877
:100B1000A4022108031C210FA5022208031C220F96
:100B2000A6022308031C230FA70201300310A30C05
:100B3000A20CA10CA00CFF3E031D962D0130F40267
:100B4000031DA32DA42D752D2708A3002608A200A0
:100B50002508A1002408A000080046307A06031DDD
:100B6000B22DB32DD42D7527740883120313A10061
:100B70007308A000E12583120313A500A601A51B9D
:100B8000A6039D302506031DCA2D260A0319C92D6B
:100B9000CA2DD42D2608F4002508F3004A2774082E
:100BA000F9007308F800E02D752774088312031309
:100BB000A1007308A000E125F800F901F81BF90372
:100BC0000800F701092E770883120313A2002207F9
:100BD000123E840081300318013EFF000021A30073
:100BE0000021A40021082402031DF82D200823025F
:100BF0000318FB2DFC2D052E7708043E840082305F
:100C00000318013EFF000021102E0130A20022082F
:100C1000F70779307702031C0E2E0F2EE32D9D303F
:100C200008007908803AF300831203135608803ACB
:100C30007302031D1D2E550878020318202E212E45
:100C4000272E790883120313D6007808D500831263
:100C500003135408803AF3007908803A7302031DA5
:100C6000332E780853020318362E372E3D2E79087E
:100C700083120313D4007808D3000800F70083120E
:100C80000313BC1F442E452E5B2E2D30F600770833
:100C900084007608831380000130F6007608F70799
:100CA000B909BA09BB09BC09B90A0319BA0A031977
:100CB000BB0A0319BC0A3C08B0003B08AF003A0865
:100CC000AE003908AD003E08B2003D08B10077081B
:100CD00093220800FF3083120313A9002908AB00F8
:100CE000AA018A2E2A082707840028080318280A40
:100CF000FF000021A9002908AB002B080319812E51
:100D0000822E842E2B083327013083120313A9006F
:100D10002908AA072B0803198E2E8F2E952E103026
:100D20002A02031C942E952E722E08000B1C992E5D
:100D30009A2EB92E83120313061C9F2EA02EA72EC7
:100D40000130D8070318D90A0030D907E9268312E1
:100D500003130610861CAD2EAE2EB42E0130D8071C
:100D60000318D90A0030D907AB2783120313861062
:100D70000B1072088A00710E8300FE0E7E0E0900B1
:100D8000F30101302023F501F6010130F5070318C6
:100D9000F60A0030F60704307602E23003197502D5
:100DA000031CD32ED42EC52EF30102302023F501CF
:100DB000F6010130F5070318F60A0030F607043093
:100DC0007602E23003197502031CE72EE82ED92EB5
:100DD0000800C83083120313D5000030D600CE308F
:100DE000D300FF30D40043307A06031DF82EF92ECD
:100DF000FE2E4630F0007008FA00022F4330F0005B
:100E00007008FA000800831203134208BC0041086E
:100E1000BB004008BA003F08B9000A30BD000030EE
:100E2000BE0043303E26433083120313A700003038
:100E3000A8006A2608001830F3007308831603130D
:100E400086040A30F30073088316031789046C3094
:100E5000831203139F008030831603139F008312B5
:100E600003131F140800F500F301F30A750820238B
:100E7000F601F7010130F6070318F70A0030F7070B
:100E800000307702FA3003197602031C482F492FED
:100E90003A2F08007408F6007308F5000310F50DEA
:100EA000F60D7508203E83120313A0007608031880
:100EB000013E003EA1002108F4002008F3000800D4
:100EC000831203132808803AFF0080307F02031D3D
:100ED0006B2F0A30270203186E2F6F2F742FF50126
:100EE00005308A27203033270800762F772F00001F
:100EF000831203139F149F187E2F7F2F7B2F1E08B2
:100F0000F600831603131E08F5007608F400750832
:100F1000F3000800F7007508031D8F2F902F952F01
:100F20008030F6007608F500992FC030F60076087C
:100F3000F500F3017708750720230800F400740812
:100F4000F300F30DF30D831203131F087306C33967
:100F500073069F000800790883120313D6007808EF
:100F6000D5007908D4007808D3000800CE34FF34C7
:080F7000C83400347934433425
:08400000FF3FFF3FFF3FFF3FC0
:04400E00F420FF3F5C
:00000001FF
